:020000040800F2
:100000000000032005CC0008DDC40008EBC4000894
:10001000F1C40008F7C40008FDC400080000000097
:1000200000000000000000000000000061A60008C1
:1000300003C5000800000000A1A8000809A90008E5
:1000400055CC000855CC000855CC000855CC00080C
:1000500055CC000855CC000811C5000855CC000847
:1000600055CC000855CC000855CC000855CC0008EC
:1000700055CC000855CC000855CC000855CC0008DC
:1000800055CC000855CC000855CC000855CC0008CC
:1000900055CC000855CC000855CC000855CC0008BC
:1000A00055CC000855CC000855CC000855CC0008AC
:1000B00055CC000855CC000855CC000855CC00089C
:1000C00055CC000855CC000855CC000855CC00088C
:1000D00055CC000855CC000855CC000855CC00087C
:1000E00055CC000855CC000855CC000855CC00086C
:1000F00055CC000855CC000855CC000855CC00085C
:1001000055CC000855CC000855CC000855CC00084B
:1001100055CC000855CC000821C5000855CC000876
:1001200055CC000855CC000855CC000855CC00082B
:1001300055CC000855CC000855CC000855CC00081B
:1001400055CC000855CC000855CC000855CC00080B
:1001500055CC000855CC000855CC000855CC0008FB
:1001600055CC000855CC000855CC000855CC0008EB
:1001700055CC000835C5000855CC0008000000002B
:1001800055CC000855CC000855CC000855CC0008CB
:1001900055CC000855CC000855CC000855CC0008BB
:0C01A00049C5000855CC00085DC50008EA
:1001B00010B5054C237833B9044B13B10448AFF3A1
:1001C00000800123237010BDA0000020000000006B
:1001D00068CE000808B5034B1BB103490348AFF3D1
:1001E000008008BD00000000A400002068CE0008C8
:1001F00053B94AB9002908BF00281CBF4FF0FF318E
:100200004FF0FF3000F072B9ADF1080C6DE904CE8B
:1002100000F006F8DDF804E0DDE9022304B07047E1
:100220002DE9F047089E04468846002B4BD18A42B0
:10023000154667D9B2FA82F24AB1C2F1200701FA33
:1002400002F320FA07F7954047EA030894404FEA83
:10025000154E230CB8FBFEF71FFA85FC0EFB178822
:1002600043EA084307FB0CF1994209D9EB1807F15F
:10027000FF3080F01B81994240F21881023F2B44ED
:100280005B1AA4B2B3FBFEF00EFB103344EA034446
:1002900000FB0CFCA44509D92C1900F1FF3380F0B8
:1002A0000781A44540F2048102382C4440EA07400B
:1002B000A4EB0C0400271EB1D4400023C6E9004380
:1002C0003946BDE8F0878B4209D9002E00F0EB805B
:1002D0000027C6E9000138463946BDE8F087B3FA81
:1002E00083F7002F47D18B4202D3824200F2FA807B
:1002F000841A61EB030301209846002EE0D0C6E982
:100300000048DDE702B9FFDEB2FA82F2002A40F0CF
:100310008F80491B4FEA154E1FFA85F80127B1FB64
:10032000FEFC230C0EFB1C1143EA014308FB0CF1FD
:10033000994207D9EB180CF1FF3002D2994200F232
:10034000CD808446591AA3B2B1FBFEF00EFB101407
:1003500043EA044408FB00F8A04507D92C1900F132
:10036000FF3302D2A04500F2B6801846A4EB080481
:1003700040EA0C409FE7C7F1200CBB4022FA0CFE7C
:100380004EEA030E01FA07F420FA0CF521FA0CF3F9
:100390004FEA1E482543B3FBF8F92C0C08FB193330
:1003A0001FFA8EFA44EA034309FB0AF49C4202FA5C
:1003B00007F200FA07F10BD91EEB030309F1FF3036
:1003C00080F087809C4240F28480A9F10209734446
:1003D0001B1BADB2B3FBF8F008FB103345EA034436
:1003E00000FB0AFAA24508D91EEB040400F1FF3312
:1003F0006BD2A24569D90238744440EA0940A0FB97
:100400000289A4EB0A044C45C2464B4654D351D052
:10041000002E69D0B1EB0A0564EB030404FA0CFC6E
:10042000FD40FC404CEA0505C6E90054002747E7BB
:10043000C2F1200320FA03F7954001FA02F021FAF5
:1004400003F34FEA154E3843010CB3FBFEF71FFAD6
:1004500085F80EFB173341EA034107FB08F38B4293
:1004600004FA02F407D9691807F1FF3C2FD28B4236
:100470002DD9023F2944CB1A81B2B3FBFEF00EFB0B
:10048000103341EA034100FB08F38B4207D9691896
:1004900000F1FF3C17D28B4215D902382944C91A02
:1004A00040EA07473BE73746304609E70746E7E6B5
:1004B0001846FBE64145ABD2B8EB020A69EB0E02E7
:1004C00001381346A4E76046E9E7184695E7674612
:1004D000D1E781467CE702382C4447E7ACF1020CB7
:1004E0002B442FE7384608E73746E9E6704700BF58
:1004F00080B500AF0E4B1B680D4A43F400731360C8
:100500000B4B1B680A4A43F480631360084B1B685B
:10051000074A43F480731360032000F0FAF80020C8
:100520000BF082FF0BF03CFC0023184680BD00BF9F
:10053000003C024080B400AF064B1B781A46064BC5
:100540001B681344044A136000BFBD465DF8047B7A
:10055000704700BF040000207884002080B400AF02
:10056000034B1B681846BD465DF8047B704700BF0F
:100570007884002080B584B000AF7860FFF7EEFF8C
:10058000B8607B68FB60FB68B3F1FF3F05D0094BA7
:100590001B781A46FB681344FB6000BFFFF7DEFFC1
:1005A0000246BB68D31AFA689A42F7D800BF1037E0
:1005B000BD4680BD0400002080B485B000AF7860E7
:1005C0007B6803F00703FB600C4BDB68BB60BA6819
:1005D0004FF6FF031340BB60FB681A02BB6813436E
:1005E00043F0BF6343F40033BB60044ABB68D3608D
:1005F00000BF1437BD465DF8047B704700ED00E096
:1006000080B400AF044BDB681B0A03F007031846F5
:10061000BD465DF8047B704700ED00E080B483B018
:1006200000AF0346FB7197F90730002B0BDBFB791A
:1006300003F01F02074997F907305B09012000FA10
:1006400002F241F8232000BF0C37BD465DF8047B61
:10065000704700BF00E100E080B483B000AF034604
:100660003960FB7197F90730002B0ADB3B68DAB27F
:100670000C4997F907301201D2B20B4483F80023DA
:100680000AE03B68DAB20849FB7903F00F03043B48
:100690001201D2B20B441A7600BF0C37BD465DF88A
:1006A000047B704700E100E000ED00E080B489B019
:1006B00000AFF860B9607A60FB6803F00703FB6184
:1006C000FB69C3F10703042B28BF0423BB61FB694B
:1006D0000433062B02D9FB69033B00E000237B6156
:1006E0004FF0FF32BB6902FA03F3DA43BB681A40EA
:1006F0007B699A404FF0FF317B6901FA03F3D943DC
:100700007B680B40134318462437BD465DF8047BD5
:10071000704780B582B000AF78607868FFF74CFF13
:1007200000BF0837BD4680BD80B586B000AF034628
:10073000B9607A60FB7300237B61FFF761FF78612A
:100740007A68B9687869FFF7B1FF024697F90F3008
:1007500011461846FFF780FF00BF1837BD4680BD21
:1007600080B582B000AF0346FB7197F90730184699
:10077000FFF754FF00BF0837BD4680BD80B582B08B
:1007800000AF78607B68002B01D101230EE07B680D
:100790005B79DBB2002B05D17B6800221A71786887
:1007A0000BF02AFB7B6801225A7100231846083798
:1007B000BD4680BD80B487B000AFF860B9607A6094
:1007C00000233B61FB6802225A7100237B610AE02F
:1007D0007B699B00BA681A44FB681B6812681A6040
:1007E0007B6901337B617A697B689A42F0D3FB684D
:1007F0001B681B683B61FB6801225A713B69184604
:100800001C37BD465DF8047B704780B582B000AFF1
:1008100078607B68002B01D101233BE07B6893F873
:100820003930DBB2002B06D17B68002283F83820F8
:1008300078680BF003FB7B68022283F839207B6821
:100840001B681B6823F440317B685A687B681B680F
:100850000A431A607B681B685B6B23F007017B68A7
:100860009A687B681B680A435A637B681B681B6C29
:1008700023F47F5323F03F037A68D1687A681268C3
:100880000B4313647B680022DA637B68012283F8E0
:100890003920002318460837BD4680BD80B584B096
:1008A00000AF78607B681B685B68FB607B681B68D7
:1008B0001B68BB60FB6803F00103002B26D0BB68FC
:1008C00003F48073002B21D07B681B681A687B6857
:1008D0001B6822F480721A607B68DB6B43F00102B4
:1008E0007B68DA637B681B6801229A607B6804225C
:1008F00083F839207B68002283F838207B685B69A5
:10090000002B03D07B685B6978689847FB6803F02D
:100910002003002B26D0BB6803F40053002B21D00A
:100920007B681B681A687B681B6822F400521A6097
:100930007B681B6820229A607B68DB6B43F00202B5
:100940007B68DA637B68042283F839207B680022A5
:1009500083F838207B685B69002B03D07B685B6978
:1009600078689847FB6803F00803002B26D0BB6823
:1009700003F40063002B21D07B681B681A687B6836
:100980001B6822F400621A607B681B6808229A6068
:100990007B68DB6B43F004027B68DA637B680422CC
:1009A00083F839207B68002283F838207B685B69F4
:1009B000002B03D07B685B6978689847FB6803F07D
:1009C0000403002B13D0BB6803F48063002B0ED00C
:1009D0007B681B681A687B681B6822F480621A6057
:1009E0007B681B6804229A60786800F053F8FB6803
:1009F00003F00203002B24D0BB6803F40073002B28
:100A00001FD07B681B681A687B681B6822F4007221
:100A10001A607B681B6802229A607B68DA6B7B68CD
:100A2000DA637B68012283F839207B68002283F82F
:100A300038207B681B69002B03D07B681B697868B2
:100A40009847FB6803F01003002B1FD0BB6803F42A
:100A50008053002B1AD07B681B681A687B681B6860
:100A600022F480521A607B681B6810229A607B68AF
:100A7000DA6B7B68DA637B68012283F839207B6854
:100A8000002283F83820786800F00EF800BF103795
:100A9000BD4680BD80B483B000AF786000BF0C3726
:100AA000BD465DF8047B704780B483B000AF7860CA
:100AB00000BF0C37BD465DF8047B704780B487B03B
:100AC00000AF786039607B685B68B3F5403F7B6856
:100AD00093F83830012B01D1022379E07B680122A1
:100AE00083F838207B68022283F839203B681B0199
:100AF00018337A6813443B613B695A683B699B68C9
:100B00001B0413437B61354BFB603B695B680A2B1D
:100B100003D03B695B68092B07D13B69DB6803F0B5
:100B20007F437A6913437B6105E03B69DB681B0601
:100B30007A6913437B613B68002B20D17B681B687B
:100B40005A6AFB68DB4302EA03017B681B687A6927
:100B50000A435A627B681B683A6912689A613B696A
:100B60005B680A2B03D03B695B68092B27D13B6983
:100B7000DA687B681B6822F07F429A621FE07B681C
:100B80001B68DA69FB68DB4302EA03017B681B68C8
:100B90007A690A43DA617B681B683A6912681A61EC
:100BA0003B695B680A2B03D03B695B68092B06D164
:100BB0003B69DA687B681B6822F07F421A627B68B7
:100BC000012283F839207B68002283F83820002333
:100BD00018461C37BD465DF8047B70470F0003FFC5
:100BE00080B586B000AFF860B960C7E90023012383
:100BF000FB75234B1B7E012B01D102233BE0204BD5
:100C000001221A764CF2503000F070F80346FB7562
:100C1000FB7D002B2BD1FB68002B05D13B781946BF
:100C2000B86800F019F916E0FB68012B05D13B8884
:100C30001946B86800F0ECF80DE0FB68022B05D10E
:100C40003B681946B86800F0C1F804E0D7E9002312
:100C5000B86800F08BF84CF2503000F047F80346CB
:100C6000FB75084B1B69074A23F001031361044B12
:100C700000221A76FB7D18461837BD4680BD00BF9E
:100C80007C840020003C024080B483B000AF00238D
:100C9000FB710B4B1B69002B0BDA094B094A5A609D
:100CA000074B094A5A60064B1B69002B01DA0123E6
:100CB000FB71FB7918460C37BD465DF8047B704725
:100CC000003C024023016745AB89EFCD80B400AF03
:100CD000054B1B69044A43F0004313610023184687
:100CE000BD465DF8047B7047003C024080B584B08F
:100CF00000AF78600023FB601A4B0022DA61FFF737
:100D00002DFCF86010E07B68B3F1FF3F0CD07B68EE
:100D1000002B07D0FFF722FC0246FB68D31A7A6843
:100D20009A4201D2032319E00F4BDB6803F48033AE
:100D3000002BE8D10C4BDB6803F00103002B02D041
:100D4000094B0122DA60084BDB6803F4F973002BCE
:100D500003D000F0A3F8012300E000231846103769
:100D6000BD4680BD7C840020003C024090B484B02D
:100D700000AFF860C7E90023134B1B69124A23F444
:100D800040731361104B1B690F4A43F440731361A6
:100D90000D4B1B690C4A43F001031361FB683A6871
:100DA0001A60BFF36F8FD7E900124FF000034FF0C6
:100DB000000413000024FA680432136000BF1037E7
:100DC000BD4690BC704700BF003C024080B483B079
:100DD00000AF786039600D4B1B690C4A23F44073F7
:100DE00013610A4B1B69094A43F400731361074BF3
:100DF0001B69064A43F0010313617B683A681A6075
:100E000000BF0C37BD465DF8047B7047003C0240D4
:100E100080B483B000AF78600B467B800D4B1B69BC
:100E20000C4A23F4407313610A4B1B69094A43F4CB
:100E300080731361074B1B69064A43F0010313617A
:100E40007B687A881A8000BF0C37BD465DF8047B4A
:100E5000704700BF003C024080B483B000AF7860B0
:100E60000B46FB700C4B1B690B4A23F44073136158
:100E7000094B094A1B691361074B1B69064A43F07A
:100E8000010313617B68FA781A7000BF0C37BD4606
:100E90005DF8047B704700BF003C024080B400AFA7
:100EA0002F4BDB6803F01003002B08D02D4BDB69C0
:100EB00043F010032B4AD361294B1022DA60284BF0
:100EC000DB6803F02003002B08D0264BDB6943F0DE
:100ED0000803244AD361224B2022DA60204BDB68CE
:100EE00003F04003002B08D01E4BDB6943F00403E2
:100EF0001C4AD3611A4B4022DA60194BDB6803F0BD
:100F00008003002B08D0174BDB6943F00203154A1E
:100F1000D361134B8022DA60114BDB6803F48073DA
:100F2000002B09D00F4BDB6943F001030D4AD3615D
:100F30000B4B4FF48072DA60094BDB6803F002035D
:100F4000002B08D0074BDB6943F02003054AD3612F
:100F5000034B0222DA6000BFBD465DF8047B704798
:100F6000003C02407C84002080B584B000AF7860F3
:100F700039600123FB730023BB60324B1B7E012BC6
:100F800001D102235AE02F4B01221A764CF2503045
:100F9000FFF7ACFE0346FB73FB7B002B4AD13B689B
:100FA0004FF0FF321A607B681B68012B17D17B68FA
:100FB0001B69DAB27B685B681946104600F046F898
:100FC0004CF25030FFF792FE0346FB731E4B1B6939
:100FD0001D4A23F4004323F00403136128E07B68D7
:100FE0009B68BB601CE07B681B69DBB21946B86874
:100FF00000F066F84CF25030FFF778FE0346FB73C2
:10100000114B1B69104A23F0FA031361FB7B002B81
:1010100003D03B68BA681A600AE0BB680133BB6062
:101020007B68DA687B689B681344BA689A42DAD3B3
:1010300000F094F8034B00221A76FB7B1846103719
:10104000BD4680BD7C840020003C024080B483B05B
:1010500000AF03463960FB71184B1B69174A23F434
:10106000407313613B68032B08D1144B1B69134A6F
:1010700043F4004343F0040313610FE03B68012B8A
:1010800006D10E4B1B690D4A43F00403136105E0C2
:101090000A4B1B69094A43F400431361074B1A6961
:1010A000FB791B021343054A43F48033136100BFED
:1010B0000C37BD465DF8047B704700BF003C024022
:1010C00080B485B000AF78600B46FB700023FB60F6
:1010D000FB78002B02D10023FB6010E0FB78012B92
:1010E00003D14FF48073FB6009E0FB78022B03D13E
:1010F0004FF40073FB6002E04FF44073FB607B68C9
:101100000B2B02D97B6804337B60134B1B69124A9B
:1011100023F440731361104B1A690F49FB681343A2
:101120000B610D4B1B690C4A23F0F80313610A4B4A
:101130001A697B68DB001343074A43F0020313611B
:10114000054B1B69044A43F48033136100BF143715
:10115000BD465DF8047B7047003C024080B400AFA0
:10116000204B1B6803F40073002B17D01D4B1B682A
:101170001C4A23F4007313601A4B1B68194A43F48A
:1011800000631360174B1B68164A23F40063136057
:10119000144B1B68134A43F400731360114B1B6814
:1011A00003F48063002B17D00E4B1B680D4A23F409
:1011B000806313600B4B1B680A4A43F4805313602F
:1011C000084B1B68074A23F480531360054B1B68C8
:1011D000044A43F48063136000BFBD465DF8047B9E
:1011E000704700BF003C024080B489B000AF786017
:1011F000396000237B6100233B610023BB61002336
:10120000FB6177E10122FB6902FA03F37B613B6832
:101210001B687A6913403B613A697B699A4240F0E6
:1012200066813B685B68012B0BD03B685B68022BD7
:1012300007D03B685B68112B03D03B685B68122BBF
:1012400030D17B689B68BB61FB695B00032202FABB
:1012500003F3DB43BA691340BB613B68DA68FB699F
:101260005B0002FA03F3BA691343BB617B68BA6996
:101270009A607B685B68BB610122FB6902FA03F339
:10128000DB43BA691340BB613B685B681B0903F031
:101290000102FB6902FA03F3BA691343BB617B687D
:1012A000BA695A607B68DB68BB61FB695B0003223B
:1012B00002FA03F3DB43BA691340BB613B689A68E7
:1012C000FB695B0002FA03F3BA691343BB617B68F5
:1012D000BA69DA603B685B68022B03D03B685B68E5
:1012E000122B23D1FB69DA087B68083253F82230CD
:1012F000BB61FB6903F007039B000F2202FA03F3B3
:10130000DB43BA691340BB613B681A69FB6903F0B0
:1013100007039B0002FA03F3BA691343BB61FB693D
:10132000DA087B680832B96943F822107B681B68C9
:10133000BB61FB695B00032202FA03F3DB43BA697A
:101340001340BB613B685B6803F00302FB695B0011
:1013500002FA03F3BA691343BB617B68BA691A6086
:101360003B685B6803F08053002B00F0C0800023D3
:10137000FB60654B5B6C644A43F480435364624B8F
:101380005B6C03F48043FB60FB68604AFB699B086D
:10139000023352F82330BB61FB6903F003039B0067
:1013A0000F2202FA03F3DB43BA691340BB617B6887
:1013B000574A934237D07B68564A934231D07B6874
:1013C000554A93422BD07B68544A934225D07B6880
:1013D000534A93421FD07B68524A934219D07B688C
:1013E000514A934213D07B68504A93420DD07B6898
:1013F0004F4A934207D07B684E4A934201D109235A
:1014000012E00A2310E008230EE007230CE0062375
:101410000AE0052308E0042306E0032304E0022396
:1014200002E0012300E00023FA6902F003029200C7
:101430009340BA691343BB613449FB699B0802338B
:10144000BA6941F823203C4B1B68BB613B69DB4315
:10145000BA691340BB613B685B6803F48033002BBF
:1014600003D0BA693B691343BB61334ABB6913605C
:10147000314B5B68BB613B69DB43BA691340BB61BD
:101480003B685B6803F40033002B03D0BA693B6907
:101490001343BB61284ABB695360274B9B68BB6100
:1014A0003B69DB43BA691340BB613B685B6803F48B
:1014B0008013002B03D0BA693B691343BB611E4AFA
:1014C000BB6993601C4BDB68BB613B69DB43BA695A
:1014D0001340BB613B685B6803F40013002B03D02F
:1014E000BA693B691343BB61134ABB69D360FB69AB
:1014F0000133FB61FB690F2B7FF684AE00BF2437FD
:10150000BD465DF8047B704700380240003801405A
:10151000000002400004024000080240000C0240AB
:10152000001002400014024000180240001C02405B
:101530000020024000240240003C014080B485B0FD
:1015400000AF78600B467B807B681A697B8813400C
:10155000002B02D00123FB7301E00023FB73FB7B14
:1015600018461437BD465DF8047B704780B483B0DD
:1015700000AF78600B467B8013467B707B78002B36
:1015800003D07A887B689A6103E07B881A047B68C1
:101590009A6100BF0C37BD465DF8047B70470000C0
:1015A00080B582B000AF0346FB80084B5A69FB88C8
:1015B0001340002B06D0054AFB885361FB88184670
:1015C00000F006F800BF0837BD4680BD003C014072
:1015D00080B483B000AF0346FB80FB88012B02D1AF
:1015E000044B01221A7000BF0C37BD465DF8047B26
:1015F000704700BF68870020F0B58FB00AAF7860F1
:101600007B68002B01D1012354E07B681B68FB60E1
:101610007B6893F8B932DBB2002B06D17B680022DD
:1016200083F8B82278680BF039F87B68032283F8D6
:10163000B922FB68DB6B03F48073002B02D17B685B
:1016400000221A617B681B68184604F0F9FA7B686F
:101650001B683B607E686D4606F110040FCC0FC519
:101660000FCC0FC594E8030085E80300331D0ECBB3
:10167000386804F073FA7B681B680121184604F08F
:10168000F0FA7B681B683B607E686D4606F11004CB
:101690000FCC0FC50FCC0FC594E8030085E80300FD
:1016A000331D0ECB386804F003FC7B68012283F8FD
:1016B000B922002318461437BD46F0BD90B589B055
:1016C00004AF7860084611461A460346FB700B4685
:1016D000BB7013467B707B6893F8B832012B01D145
:1016E00002237FE07B68012283F8B822FA787968C8
:1016F00013469B001344DB000B443D3300221A7059
:10170000FA78796813469B001344DB000B443833A6
:101710007A781A70FA78796813469B001344DB00D4
:101720000B4440333A8D1A80FA78796813469B004F
:101730001344DB000B443933FA781A70FA7879686D
:1017400013469B001344DB000B443F3397F82420DF
:101750001A70FA78BB7803F07F03D8B27968134621
:101760009B001344DB000B443A3302461A7097F98E
:101770000230002B0ADAFA78796813469B0013448A
:10178000DB000B443B3301221A7009E0FA787968D8
:1017900013469B001344DB000B443B3300221A70BA
:1017A000FA78796813469B001344DB000B443C3302
:1017B00097F820201A707B6818687C78BA78F978D6
:1017C0003B8D029397F82430019397F820300093D3
:1017D000234604F0EFFC0346FB737B68002283F88A
:1017E000B822FB7B18461437BD4690BD80B584B047
:1017F00000AF78600B46FB700023FB737B6893F8A7
:10180000B832012B01D102230FE07B68012283F85B
:10181000B8227B681B68FA781146184604F029FF45
:101820007B68002283F8B822FB7B18461037BD4640
:1018300080BD000080B582B000AF786008461146D8
:101840001A460346FB700B46BB7013467B70FA7852
:10185000796813469B001344DB000B443B33BA7892
:101860001A70FA78796813469B001344DB000B4426
:101870003F337A781A703B7C002B0AD1FA7879686A
:1018800013469B001344DB000B44423303221A70BF
:1018900009E0FA78796813469B001344DB000B4497
:1018A000423302221A707B78032B00F2D68001A209
:1018B00052F823F0C5180008451A0008311900082D
:1018C000BB1900083B7C012B40F0C980BB78002B82
:1018D00040F0C5803B8B002B09D1FA78796813461C
:1018E0009B001344DB000B44513301221A70FA7839
:1018F000796813469B001344DB000B4451331B787B
:10190000002B0AD1FA78796813469B001344DB0058
:101910000B44423300221A70A1E0FA78796813462A
:101920009B001344DB000B44423302221A7096E002
:10193000BB78002B20D1FA78796813469B001344BA
:10194000DB000B4451331B78002B0AD1FA787968FD
:1019500013469B001344DB000B44423300221A70F1
:101960007EE0FA78796813469B001344DB000B4451
:10197000423302221A7073E0FA78796813469B00AA
:101980001344DB000B4450331B78002B0AD1FA7848
:10199000796813469B001344DB000B44423300225A
:1019A0001A705DE0FA78796813469B001344DB00F7
:1019B0000B44423302221A7052E0BB78002B20D134
:1019C000FA78796813469B001344DB000B445133CB
:1019D0001B78002B0AD1FA78796813469B001344D0
:1019E000DB000B44423300221A7039E0FA78796840
:1019F00013469B001344DB000B44423302221A704F
:101A00002EE0FA78796813469B001344DB000B4400
:101A100050331B78002B0AD1FA78796813469B0063
:101A20001344DB000B44423300221A7018E0FA78AA
:101A3000796813469B001344DB000B4442330222B7
:101A40001A700DE0FA78796813469B001344DB00A6
:101A50000B44423300221A7002E000BF00E000BFD6
:101A6000FA78796813469B001344DB000B44443337
:101A70007A691A60FA78398B786813469B001344A8
:101A8000DB00034448331960FA78796813469B00F9
:101A90001344DB000B445C3300221A70FA78796837
:101AA00013469B001344DB000B444C3300221A60A6
:101AB000FA78796813469B001344DB000B443933F2
:101AC000FA781A70FA78796813469B001344DB00A1
:101AD0000B445D3300221A707B681868FA7813464D
:101AE0009B001344DB0038337A68D1187B681B698C
:101AF000DBB21A4604F068FC034618460837BD46B8
:101B000080BD00BF80B586B000AF78607B681B6881
:101B10003B613B69FB607B681B68184604F085F9F4
:101B20000346012B40F0F1807B681B68184604F0E7
:101B300069F90346002B00F0E7807B681B681846B4
:101B400004F060F9034603F40013B3F5001F04D159
:101B50007B681B684FF400125A617B681B6818464B
:101B600004F050F9034603F48013B3F5801F04D149
:101B70007B681B684FF480125A617B681B681846AB
:101B800004F040F9034603F08063B3F1806F04D1A1
:101B90007B681B684FF080625A617B681B6818463F
:101BA00004F030F9034603F00203022B03D17B68F3
:101BB0001B6802225A617B681B68184604F022F9F0
:101BC000034603F00053B3F1005F17D1FB6803F540
:101BD00088631B68FA6802F5886223F02E0313609D
:101BE00078680AF0D5FD7B681B680121184604F06F
:101BF0001BFA7B681B684FF000525A617B681B68B8
:101C0000184604F0FFF8034603F08073B3F1807FB9
:101C100002D1786801F0C8F87B681B68184604F0A8
:101C2000F1F8034603F00803082B06D178680AF0A0
:101C300093FD7B681B6808225A617B681B68184605
:101C400004F0E0F8034603F00073B3F1007F38D1ED
:101C50007B681B68184604F0FBFCB86000237B61BE
:101C600025E07B6903F00F03BA6822FA03F303F05F
:101C70000103002B18D07B695A01FB68134403F55C
:101C8000A0631B6803F40043B3F5004F06D17B69E2
:101C9000DBB21946786800F0CFF805E07B69DBB26B
:101CA0001946786800F05FFC7B6901337B617B68D3
:101CB0009B687A699A42D4D37B681B684FF00072A4
:101CC0005A617B681B68184604F09CF8034603F0D1
:101CD0001003102B01D1012300E00023002B14D0AE
:101CE0007B681B689A697B681B6822F010029A6106
:101CF000786800F0ADFF7B681B689A697B681B6899
:101D000042F010029A6100E000BF1837BD4680BD66
:101D100080B582B000AF78607B6893F8B832012B51
:101D200001D1022313E07B68012283F8B8227B688B
:101D30001B68184603F073FF7B681B680121184677
:101D400004F0D6F97B68002283F8B82200231846F5
:101D50000837BD4680BD80B582B000AF78607B6833
:101D600093F8B832012B01D102230DE07B680122E8
:101D700083F8B8227B681B68184604F0B5FD7B68C1
:101D8000002283F8B822002318460837BD4680BDDC
:101D900080B582B000AF78607B681B68184604F09D
:101DA0007DF9034618460837BD4680BD80B483B030
:101DB00000AF78600B46FB70FA78796813469B0099
:101DC0001344DB000B445C331B7818460C37BD46CC
:101DD0005DF8047B704780B483B000AF78600B4639
:101DE000FB70FA78796813469B001344DB000B44C0
:101DF0004C331B6818460C37BD465DF8047B7047B2
:101E000080B582B000AF78607B681B68184604F02C
:101E1000BFF9034618460837BD4680BD80B582B07D
:101E200000AF78607B681B68184604F09AF9034697
:101E300018460837BD4680BD80B586B000AF7860D3
:101E40000B46FB707B681B687B617B693B61FB78A1
:101E5000FB60FB685A013B69134403F5A0639B6870
:101E600003F00403042B19D1FB685A013B691344A6
:101E700003F5A0631A4604239360FB685A013B698B
:101E8000134403F5A063DB68FA6851013A690A4418
:101E900002F5A06243F00203D36095E0FB685A01AB
:101EA0003B69134403F5A0639B6803F02003202BD8
:101EB00009D1FB685A013B69134403F5A0631A4634
:101EC0002023936080E0FB685A013B69134403F5CB
:101ED000A0639B6803F00803082B34D1FB685A0108
:101EE0003B69134403F5A063DB68FA6851013A6962
:101EF0000A4402F5A06243F00203D3607968FA68ED
:101F000013469B001344DB000B445D3305221A701B
:101F1000FB685A013B69134403F5A0631A4610237A
:101F20009360FB685A013B69134403F5A0631A46AA
:101F3000082393607B681B68FA68D2B21146184682
:101F400004F097FB40E0FB685A013B69134403F53A
:101F5000A0639B6803F48063B3F5806F34D1FB68A2
:101F60005A013B69134403F5A063DB68FA68510129
:101F70003A690A4402F5A06243F00203D3607B6829
:101F80001B68FA68D2B21146184604F072FBFB686F
:101F90005A013B69134403F5A0631A46102393606A
:101FA0007968FA6813469B001344DB000B445D33E9
:101FB00008221A70FB685A013B69134403F5A063B9
:101FC0001A464FF480639360FB685A013B691344DF
:101FD00003F5A0639B6803F40073B3F5007F22D17F
:101FE000FB685A013B69134403F5A063DB68FA6898
:101FF00051013A690A4402F5A06243F00203D3603A
:102000007B681B68FA68D2B21146184604F031FBAF
:10201000FB685A013B69134403F5A0631A464FF469
:10202000007393609BE2FB685A013B69134403F51C
:10203000A0639B6803F00103012B40F0C1807B6823
:102040001B69002B1BD07968FA6813469B00134468
:10205000DB000B4448331A68FB6859013B690B44A9
:1020600003F5A0631B69C3F31203D11A7868FA68F9
:1020700013469B001344DB0003444C33196079681A
:10208000FA6813469B001344DB000B445D330122C6
:102090001A707968FA6813469B001344DB000B44FE
:1020A000583300221A60FB685A013B69134403F558
:1020B000A0631A46012393607968FA6813469B006F
:1020C0001344DB000B443F331B78002B0AD07968A4
:1020D000FA6813469B001344DB000B443F331B7824
:1020E000022B21D1FB685A013B69134403F5A0631D
:1020F000DB68FA6851013A690A4402F5A06243F0CC
:102100000203D3607B681B68FA68D2B21146184696
:1021100004F0AFFAFB685A013B69134403F5A0636E
:102120001A461023936034E07968FA6813469B00DE
:102130001344DB000B443F331B78032B29D1FB688E
:102140005A013B69134403F5A0631B68FA68510107
:102150003A690A4402F5A06243F0005313607968BB
:10216000FA6813469B001344DB000B445C330122E6
:102170001A70FB68D8B27968FA6813469B0013445A
:10218000DB000B445C331B781A46014678680AF082
:102190000DFB7968FA6813469B001344DB000B447F
:1021A00050331B7883F00103D8B27968FA6813467C
:1021B0009B001344DB000B44503302461A70CEE1FF
:1021C000FB685A013B69134403F5A0639B6803F065
:1021D0000203022B40F0F180FB685A013B69134473
:1021E00003F5A063DB68FA6851013A690A4402F515
:1021F000A06223F00203D3607968FA6813469B005B
:102200001344DB000B445D331B78012B0AD1796842
:10221000FA6813469B001344DB000B445C33012235
:102220001A70B0E07968FA6813469B001344DB002B
:102230000B445D331B78052B0AD17968FA68134685
:102240009B001344DB000B445C3305221A709AE0B8
:102250007968FA6813469B001344DB000B445D3336
:102260001B78062B0AD07968FA6813469B00134442
:10227000DB000B445D331B78082B56D17968FA6874
:1022800013469B001344DB000B4458331B68591C56
:102290007868FA6813469B001344DB000344583304
:1022A00019607968FA6813469B001344DB000B44FD
:1022B00058331B68032B14D97968FA6813469B00BE
:1022C0001344DB000B44583300221A607968FA6823
:1022D00013469B001344DB000B445C3304221A704A
:1022E00009E07968FA6813469B001344DB000B444D
:1022F0005C3302221A70FB685A013B69134403F5F0
:10230000A0631B68BB60BB6823F08043BB60BB68F5
:1023100043F00043BB60FB685A013B69134403F57B
:10232000A0631A46BB6813602DE07968FA6813460B
:102330009B001344DB000B445D331B78032B22D13D
:102340007968FA6813469B001344DB000B445C3346
:1023500002221A70FB685A013B69134403F5A0631B
:102360001B68BB60BB6823F08043BB60BB6843F065
:102370000043BB60FB685A013B69134403F5A0634B
:102380001A46BB681360FB685A013B69134403F5A6
:10239000A0631A4602239360FB68D8B27968FA6892
:1023A00013469B001344DB000B445C331B781A4636
:1023B000014678680AF0FAF9D1E0FB685A013B69F6
:1023C000134403F5A0639B6803F08003802B3ED188
:1023D000FB685A013B69134403F5A063DB68FA68A4
:1023E00051013A690A4402F5A06243F00203D36046
:1023F0007968FA6813469B001344DB000B4458339A
:102400001B68591C7868FA6813469B001344DB006C
:102410000344583319607968FA6813469B001344E3
:10242000DB000B445D3306221A707B681B68FA6878
:10243000D2B21146184604F01CF9FB685A013B69F8
:10244000134403F5A0631A468023936087E0FB687A
:102450005A013B69134403F5A0639B6803F0100322
:10246000102B7CD17968FA6813469B001344DB007B
:102470000B443F331B78032B22D17968FA6813464B
:102480009B001344DB000B44583300221A60FB68A6
:102490005A013B69134403F5A063DB68FA685101F4
:1024A0003A690A4402F5A06243F00203D3607B68F4
:1024B0001B68FA68D2B21146184604F0DAF845E013
:1024C0007968FA6813469B001344DB000B443F33E2
:1024D0001B78002B0AD07968FA6813469B001344D6
:1024E000DB000B443F331B78022B2FD17968FA684D
:1024F00013469B001344DB000B44583300221A6040
:102500007B681B69002B21D17968FA6813469B0010
:102510001344DB000B445D3303221A70FB685A013D
:102520003B69134403F5A063DB68FA6851013A691B
:102530000A4402F5A06243F00203D3607B681B6883
:10254000FA68D2B21146184604F093F8FB685A01B3
:102550003B69134403F5A0631A461023936000BF40
:102560001837BD4680BD80B586B000AF78600B4699
:10257000FB707B681B687B617B693B61FB78FB6060
:10258000FB685A013B69134403F5A0639B6803F0A1
:102590000403042B19D1FB685A013B69134403F56A
:1025A000A0631A4604239360FB685A013B691344F5
:1025B00003F5A063DB68FA6851013A690A4402F541
:1025C000A06243F00203D3603EE3FB685A013B691B
:1025D000134403F5A0639B6803F02003202B41D133
:1025E000FB685A013B69134403F5A0631A46202394
:1025F00093607968FA6813469B001344DB000B4430
:102600003D331B78012B40F01F837968FA6813462D
:102610009B001344DB000B443D3300221A707968A1
:10262000FA6813469B001344DB000B445C33022220
:102630001A70FB685A013B69134403F5A063DB6819
:10264000FA6851013A690A4402F5A06243F00203B4
:10265000D3607B681B68FA68D2B21146184604F052
:1026600008F8F1E2FB685A013B69134403F5A063E3
:102670009B6803F04003402B3FD17968FA6813460A
:102680009B001344DB000B445D3304221A7079680D
:10269000FA6813469B001344DB000B443D330122D0
:1026A0001A707968FA6813469B001344DB000B44E8
:1026B000583300221A60FB685A013B69134403F542
:1026C000A063DB68FA6851013A690A4402F5A06226
:1026D00043F00203D3607B681B68FA68D2B21146EC
:1026E000184603F0C6FFFB685A013B69134403F523
:1026F000A0631A4640239360A6E2FB685A013B6937
:10270000134403F5A0639B6803F40073B3F5007FE3
:1027100022D1FB685A013B69134403F5A063DB68CF
:10272000FA6851013A690A4402F5A06243F00203D3
:10273000D3607B681B68FA68D2B21146184603F072
:1027400098FFFB685A013B69134403F5A0631A46DE
:102750004FF40073936077E2FB685A013B691344BE
:1027600003F5A0639B6803F00103012B35D1796861
:10277000FA6813469B001344DB000B4458330022D5
:102780001A60FB685A013B69134403F5A063DB68D8
:10279000FA6851013A690A4402F5A06243F0020363
:1027A000D3607B681B68FA68D2B21146184603F002
:1027B00060FFFB685A013B69134403F5A0631A46A6
:1027C000012393607968FA6813469B001344DB0089
:1027D0000B445D3301221A7036E2FB685A013B69F3
:1027E000134403F5A0639B6803F00803082B2BD167
:1027F000FB685A013B69134403F5A0631A4608239A
:102800009360FB685A013B69134403F5A063DB68DE
:10281000FA6851013A690A4402F5A06243F00203E2
:10282000D3607B681B68FA68D2B21146184603F081
:1028300020FF7968FA6813469B001344DB000B44C1
:102840005D3305221A70FFE1FB685A013B691344AE
:1028500003F5A0639B6803F01003102B55D1796832
:10286000FA6813469B001344DB000B4458330022E4
:102870001A607968FA6813469B001344DB000B4426
:102880005D3303221A707968FA6813469B0013447B
:10289000DB000B443D331B78002B14D17968FA68B8
:1028A00013469B001344DB000B443C331B78002B86
:1028B00009D17968FA6813469B001344DB000B4486
:1028C0003D3301221A70FB685A013B69134403F53A
:1028D000A063DB68FA6851013A690A4402F5A06214
:1028E00043F00203D3607B681B68FA68D2B21146DA
:1028F000184603F0BEFEFB685A013B69134403F51A
:10290000A0631A46102393609EE1FB685A013B695D
:10291000134403F5A0639B6803F08003802B2BD145
:10292000FB685A013B69134403F5A063DB68FA684E
:1029300051013A690A4402F5A06243F00203D360F0
:102940007B681B68FA68D2B21146184603F091FE04
:102950007968FA6813469B001344DB000B445D332F
:1029600006221A70FB685A013B69134403F5A06301
:102970001A468023936067E1FB685A013B69134460
:1029800003F5A0639B6803F48063B3F5806F35D1D2
:10299000FB685A013B69134403F5A063DB68FA68DE
:1029A00051013A690A4402F5A06243F00203D36080
:1029B0007B681B68FA68D2B21146184603F059FECC
:1029C000FB685A013B69134403F5A0631A461023C0
:1029D0009360FB685A013B69134403F5A0631A46F0
:1029E0004FF4806393607968FA6813469B00134440
:1029F000DB000B445D3308221A7025E1FB685A01A5
:102A00003B69134403F5A0639B6803F00203022BA8
:102A100040F01A81FB685A013B69134403F5A06337
:102A2000DB68FA6851013A690A4402F5A06223F0B2
:102A30000203D3607968FA6813469B001344DB00F5
:102A40000B445D331B78012B37D17968FA68134644
:102A50009B001344DB000B445C3301221A7079683D
:102A6000FA6813469B001344DB000B443F331B788A
:102A7000022B0BD07968FA6813469B001344DB00E5
:102A80000B443F331B78032B40F0C5807968FA680C
:102A900013469B001344DB000B4451331B7883F037
:102AA0000103D8B27968FA6813469B001344DB002F
:102AB0000B44513302461A70ADE07968FA68134648
:102AC0009B001344DB000B445D331B78032B0AD1BE
:102AD0007968FA6813469B001344DB000B445C33AF
:102AE00002221A7097E07968FA6813469B00134433
:102AF000DB000B445D331B78042B0AD17968FA683C
:102B000013469B001344DB000B445C3302221A7013
:102B100081E07968FA6813469B001344DB000B449C
:102B20005D331B78052B0AD17968FA6813469B0040
:102B30001344DB000B445C3305221A706BE07968A8
:102B4000FA6813469B001344DB000B445D331B788B
:102B5000062B0AD07968FA6813469B001344DB0001
:102B60000B445D331B78082B55D17968FA681346FE
:102B70009B001344DB000B4458331B68591C7868D6
:102B8000FA6813469B001344DB0003445833196072
:102B90007968FA6813469B001344DB000B445833F2
:102BA0001B68032B14D97968FA6813469B001344F9
:102BB000DB000B44583300221A607968FA68134628
:102BC0009B001344DB000B445C3304221A7009E0C1
:102BD0007968FA6813469B001344DB000B445C33AE
:102BE00002221A70FB685A013B69134403F5A06383
:102BF0001B68BB60BB6823F08043BB60BB6843F0CD
:102C00000043BB60FB685A013B69134403F5A063B2
:102C10001A46BB681360FB685A013B69134403F50D
:102C2000A0631A4602239360FB68D8B27968FA68F9
:102C300013469B001344DB000B445C331B781A469D
:102C40000146786809F0B2FD00BF1837BD4680BD67
:102C500080B58AB000AF78607B681B687B627B6A56
:102C60003B627B681B681B6AFB61FB6903F00F0317
:102C7000BB61FB695B0C03F00F037B61FB691B0904
:102C8000C3F30A033B617B69022B03D0052B00F0E1
:102C9000828083E03B69002B7FD07968BA69134654
:102CA0009B001344DB000B4444331B68002B74D09F
:102CB0007B6818687968BA6913469B001344DB0087
:102CC0000B4444331B683A6992B2194603F071F819
:102CD0007968BA6913469B001344DB000B44443304
:102CE0001A683B69D1187868BA6913469B00134487
:102CF000DB000344443319607968BA6913469B00CA
:102D00001344DB000B444C331A683B69D1187868D4
:102D1000BA6913469B001344DB0003444C3319602B
:102D2000BB695A013B6A134403F5A0631A691D4B42
:102D30001340002B31D0BB695A013B6A134403F5A1
:102D4000A0631B68FB60FB6823F08043FB60FB68AB
:102D500043F00043FB60BB695A013B6A134403F52F
:102D6000A0631A46FB6813607968BA6913469B0032
:102D70001344DB000B4450331B7883F00103D8B2BB
:102D80007968BA6913469B001344DB000B44503347
:102D900002461A7001E000BF00E000BF00BF283704
:102DA000BD4680BD0000F81F80B586B000AF7860DA
:102DB0007B681B687B617B693B613B6903F58863CA
:102DC0001B68FB603B6903F588631B68BB60BB68DD
:102DD00023F02E03BB60FB6803F00203022B13D128
:102DE000FB6803F00103012B0AD17B681B689A6919
:102DF0007B681B6822F000529A61786809F0BAFC7F
:102E0000BB6843F00203BB60FB6803F00803082BB8
:102E100047D1BB6843F00803BB60FB6803F00403C1
:102E2000042B29D17B689B69022B13D1FB6803F427
:102E3000C023B3F5802F06D17B681B68022118469A
:102E400003F0F2F811E07B681B680121184603F0DB
:102E5000EBF80AE07B68DB68012B06D13B6903F5E0
:102E600080631A464EF660235360786809F0B0FC20
:102E7000786809F07FFC14E0786809F0B7FC3B69DA
:102E800003F588631B683A6902F5886223F02E0314
:102E900013607B681B689A697B681B6842F000526C
:102EA0009A61FB6803F02003202B03D1BB6843F039
:102EB0002003BB603B6903F588631A46BB68136057
:102EC00000BF1837BD4680BD80B584B000AF7860C4
:102ED0007B68002B01D101231FE17B6893F83D3013
:102EE000DBB2002B06D17B68002283F83C20786897
:102EF00008F0CCFF7B68242283F83D207B681B68A8
:102F00001A687B681B6822F001021A607B681B68E4
:102F10001A687B681B6842F400421A607B681B6871
:102F20001A687B681B6822F400421A6001F022F9DB
:102F3000F8607B685B687B4A934207D8FB687A4AF3
:102F4000934294BF01230023DBB206E0FB68774A7B
:102F5000934294BF01230023DBB2002B01D0012355
:102F6000DBE0FB68724AA2FB03239B0CBB607B681F
:102F70001B685B6823F03F017B681B68BA680A43E3
:102F80005A607B681B681B6A23F03F017B685B68A3
:102F9000644A934202D8BB68013309E0BB684FF42E
:102FA000967202FB03F3634AA2FB03239B090133DE
:102FB0007A6812680B4313627B681B68DB6923F431
:102FC0004F4222F0FF027B685B6856498B420DD866
:102FD000FB68591E7B685B685B00B1FBF3F3013350
:102FE000C3F30B03042B38BF04234FE07B689B68BB
:102FF000002B11D1FB68581E7B6859680B465B009B
:103000000B44B0FBF3F30133C3F30B03002B0CBFF2
:1030100001230023DBB212E0FB68581E7B6859686D
:103020000B469B000B4499000B44B0FBF3F30133B8
:10303000C3F30B03002B0CBF01230023DBB2002BD7
:1030400001D0012322E07B689B68002B0ED1FB6836
:10305000581E7B6859680B465B000B44B0FBF3F3CA
:103060000133C3F30B0343F400430FE0FB68581E26
:103070007B6859680B469B000B4499000B44B0FBDE
:10308000F3F30133C3F30B0343F440437968096856
:103090001343CB617B681B681B6823F0C0017B680E
:1030A000DA697B681B6A1A437B681B680A431A60EB
:1030B0007B681B689B6823F4034323F0FF037A6853
:1030C00011697A68D26811437A6812680B43936079
:1030D0007B681B68DB6823F0FF017B685A697B68AB
:1030E0009B691A437B681B680A43DA607B681B682C
:1030F0001A687B681B6842F001021A607B68002234
:103100001A647B68202283F83D207B6800221A63C2
:103110007B68002283F83E20002318461037BD4606
:1031200080BD00BFA08601007F841E00FF083D0017
:1031300083DE1B43D34D621080B483B000AF786050
:1031400039607B6893F83D30DBB2202B29D17B6856
:10315000242283F83D207B681B681A687B681B6803
:1031600022F001021A607B681B685A6A7B681B6840
:1031700022F010025A627B681B68596A7B681B68E0
:103180003A680A435A627B681B681A687B681B6846
:1031900042F001021A607B68202283F83D20002360
:1031A00000E0022318460C37BD465DF8047B7047EB
:1031B00080B485B000AF786039600023FB817B6804
:1031C00093F83D30DBB2202B2AD17B68242283F890
:1031D0003D207B681B681A687B681B6822F001022F
:1031E0001A607B681B685B6AFB81FB8923F00F0315
:1031F000FB813B689AB2FB891343FB817B681B68A8
:10320000FA895A627B681B681A687B681B6842F0FF
:1032100001021A607B68202283F83D20002300E031
:10322000022318461437BD465DF8047B7047000042
:1032300080B584B000AF78607B68002B01D101239A
:10324000BFE07B6893F8A130DBB2002B06D17B682E
:10325000002283F8A020786808F082FE7B680222B2
:1032600083F8A1207B681B689A697B681B6822F041
:1032700070429A617B681B6899697B685A687B68B1
:103280009B681A437B68DB681A437B681B691A4397
:103290007B681B680A439A617B681B6899687B6836
:1032A0001A684A4B0B4093607B685B691B04FB60A8
:1032B0007B681B6899687B689A69FB681A437B681E
:1032C0001B680A439A607B681B68D9687B681A6828
:1032D0003E4B0B40D3607B68DB691B04FB607B6863
:1032E0001B68D9687B681A6AFB681A437B681B688D
:1032F0000A43DA607B681B6819697B681A68334B7C
:103300000B4013617B685B6A1B04FB607B681B6876
:1033100019697B689A6AFB681A437B681B680A43D1
:103320001A617B681B6859697B681A68274B0B40D8
:1033300053617B68DB6A1B04FB607B681B6859690F
:103340007B681A6BFB681A437B681B680A435A61E7
:103350007B6893F835301B02FB607B6893F836304E
:103360001B04BB607B681B68DA6A7B681B6802F021
:103370007F42DA627B681B68D96ABA68FB681343CC
:103380007A6892F834201A437B681B680A43DA6231
:103390007B681B685A6B7B681B6842F006025A63A5
:1033A0007B681B689A697B681B6842F001029A611E
:1033B0007B680022C3F8A4207B68012283F8A12047
:1033C000002318461037BD4680BD00BF00F800F04E
:1033D00080B584B000AF78607B681B689B6BFB6036
:1033E0007B681B685B6BBB60FB6803F00403002B0E
:1033F00023D0BB6803F00403002B1ED07B681B683E
:103400005A6B7B681B6822F004025A637B681B6856
:103410000422DA637B68D3F8A43043F001027B68AE
:10342000C3F8A4207B68042283F8A1207B680022D3
:1034300083F8A020786800F06FF8FB6803F00203BF
:10344000002B23D0BB6803F00203002B1ED07B6847
:103450001B685A6B7B681B6822F002025A637B6808
:103460001B680222DA637B68D3F8A43043F00202BF
:103470007B68C3F8A4207B68042283F8A1207B68C2
:10348000002283F8A020786800F046F8FB6803F07B
:103490000103002B1BD0BB6803F00103002B16D0E7
:1034A0007B681B685A6B7B681B6822F001025A63B9
:1034B0007B681B680122DA637B68012283F8A12004
:1034C0007B68002283F8A020786800F02FF8FB6862
:1034D00003F00803002B1BD0BB6803F00803002B8C
:1034E00016D07B681B685A6B7B681B6822F0080249
:1034F0005A637B681B680822DA637B68012283F8C1
:10350000A1207B68002283F8A020786800F018F8DA
:1035100000BF1037BD4680BD80B483B000AF786077
:1035200000BF0C37BD465DF8047B704780B483B0A4
:1035300000AF786000BF0C37BD465DF8047B704774
:1035400080B483B000AF786000BF0C37BD465DF833
:10355000047B7047B0B584B000AFF860B9607A60A2
:10356000FB6893F8A030012B01D102232CE0FB680B
:10357000012283F8A020FB68022283F8A120FA68C8
:103580007B68342101FB03F3134403F13802BB6869
:1035900014461D460FCD0FC40FCD0FC40FCD0FC461
:1035A0002B6823607A68B968F86800F011F8FB6846
:1035B0001B6801225A62FB68012283F8A120FB6884
:1035C000002283F8A020002318461037BD46B0BD66
:1035D00080B489B000AFF860B9607A60BB685A689F
:1035E000FB681B68DB681B0CC3F30B0313441B0451
:1035F000FB61FB681B681A467B68DB01134484335C
:103600005B68FA68126811467A68D2010A4484320B
:1036100003F470435360BB681A68FB681B68DB687F
:103620001B0CC3F30B0313445A1CFB681B6819469D
:103630007B68DB010B4484331946FB6913434B6001
:10364000BB68DA68FB681B68DB68C3F30A031344D2
:103650001B04FB61FB681B681A467B68DB01134493
:1036600084339B68FA68126811467A68D2010A446A
:10367000843203F470439360BB689A68FB681B68EC
:10368000DB68C3F30A0313445A1CFB681B68194622
:103690007B68DB010B4484331946FB6913438B6061
:1036A000FB681B681A467B68DB01134484331B6983
:1036B000FA68126811467A68D2010A44843223F00B
:1036C00007031361FB681B681A467B68DB01134420
:1036D00084331A46BB681B691361BB6893F83130A9
:1036E0001B02FB61BB6893F832301B04BB61BB68F3
:1036F0009B691B067B61FB681B681A467B68DB01C4
:10370000134484339B69FB681B681A467B68DB01A2
:10371000134484331A4600239361BB6893F8303016
:103720001A46FB691A43BB691A43FB681B681946B2
:103730007B68DB010B44843319467B6913438B613F
:10374000FB681B681A467B68DB01134484335B69A2
:10375000FA68126811467A68D2010A44843223F06A
:10376000FF035361FB681B681A467B68DB01134447
:1037700084331A46BB685B695361FB681B681A4651
:103780007B68DB0113448433DB69FA6812681146F5
:103790007A68D2010A44843223F4E06323F00703F9
:1037A000D361BB68DA69BB681B6AF96809680846B7
:1037B0007968C901014484311343CB61FB681B68FC
:1037C0001A467B68DB01134484339B6AFB681B68E1
:1037D0001A467B68DB01134484331A460023936244
:1037E000FB681B681A467B68DB01134484331A4666
:1037F000BB685B6A9362BB681B69002B02D1042320
:10380000FB611BE0BB681B69012B02D10323FB6139
:1038100014E0BB681B69042B0BD0BB681B69022B2F
:1038200007D0BB681B69032B03D0BB681B69072B40
:1038300002D10223FB6101E00123FB61FB681B68ED
:103840001A467B68DB0113448433DB6AFA6812682A
:1038500011467A68D2010A44843203F0E023D3622D
:10386000BB689B6AFA6902FB03F31A04BB685968D8
:10387000BB681B68CB1AF96901FB03F30333F968D2
:10388000096808467968C901014484311343CB6251
:10389000FB681B681A467B68DB01134484331B6B8F
:1038A000FA68126811467A68D2010A44843223F415
:1038B000FF6323F007031363FB681B681A467B68EA
:1038C000DB01134484331A46BB68DB6A1363FB686D
:1038D0001B681A467B68DB01134484331B68FA6853
:1038E000126811467A68D2010A44843243F0010317
:1038F000136000BF2437BD465DF8047B70470000AD
:1039000080B586B000AF78607B68002B01D10123C1
:103910005BE27B681B6803F00103002B75D0A34BAF
:103920009B6803F00C03042B0CD0A04B9B6803F0A6
:103930000C03082B12D19D4B5B6803F48003B3F595
:10394000800F0BD1994B1B6803F40033002B5BD025
:103950007B685B68002B57D1012336E27B685B688C
:10396000B3F5803F06D1914B1B68904A43F48033F6
:1039700013601DE07B685B68B3F5A02F0CD18B4B07
:103980001B688A4A43F480231360884B1B68874A6C
:1039900043F4803313600BE0844B1B68834A23F4A9
:1039A00080331360814B1B68804A23F480231360AB
:1039B0007B685B68002B13D0FCF7D0FD386108E012
:1039C000FCF7CCFD02463B69D31A642B01D90323D3
:1039D000FBE1764B1B6803F40033002BF0D014E0BE
:1039E000FCF7BCFD386108E0FCF7B8FD02463B6916
:1039F000D31A642B01D90323E7E16C4B1B6803F452
:103A00000033002BF0D100E000BF7B681B6803F09F
:103A10000203002B63D0654B9B6803F00C03002B63
:103A20000BD0624B9B6803F00C03082B1CD15F4B3F
:103A30005B6803F48003002B16D15C4B1B6803F01A
:103A40000203002B05D07B68DB68012B01D001232A
:103A5000BBE1564B1B6823F0F8027B681B69DB0057
:103A6000524913430B603AE07B68DB68002B20D09F
:103A70004F4B01221A60FCF771FD386108E0FCF73A
:103A80006DFD02463B69D31A022B01D903239CE149
:103A9000464B1B6803F00203002BF0D0434B1B681E
:103AA00023F0F8027B681B69DB00404913430B607D
:103AB00015E03F4B00221A60FCF750FD386108E02A
:103AC000FCF74CFD02463B69D31A022B01D90323B4
:103AD0007BE1364B1B6803F00203002BF0D17B68BF
:103AE0001B6803F00803002B30D07B685B69002B58
:103AF00016D0304B01221A60FCF730FD386108E027
:103B0000FCF72CFD02463B69D31A022B01D9032393
:103B10005BE1264B5B6F03F00203002BF0D015E056
:103B2000244B00221A60FCF719FD386108E0FCF70D
:103B300015FD02463B69D31A022B01D9032344E148
:103B40001A4B5B6F03F00203002BF0D17B681B68FC
:103B500003F00403002B00F0A0800023FB75134B3F
:103B60001B6C03F08053002B0FD10023BB600F4B65
:103B70001B6C0E4A43F0805313640C4B1B6C03F018
:103B80008053BB60BB680123FB750B4B1B6803F4C0
:103B90008073002B21D1084B1B68074A43F48073C4
:103BA0001360FCF7DBFC386111E000BF0038024015
:103BB00000004742800E474200700040FCF7CEFCF8
:103BC00002463B69D31A022B01D90323FDE0814B46
:103BD0001B6803F48073002BF0D07B689B68012B7B
:103BE00006D17D4B1B6F7C4A43F0010313671CE039
:103BF0007B689B68052B0CD1774B1B6F764A43F093
:103C000004031367744B1B6F734A43F0010313677C
:103C10000BE0714B1B6F704A23F0010313676E4B6F
:103C20001B6F6D4A23F0040313677B689B68002BAE
:103C300015D0FCF793FC38610AE0FCF78FFC0246D4
:103C40003B69D31A41F28832934201D90323BCE085
:103C5000614B1B6F03F00203002BEED014E0FCF766
:103C60007DFC38610AE0FCF779FC02463B69D31A17
:103C700041F28832934201D90323A6E0564B1B6FD1
:103C800003F00203002BEED1FB7D012B05D1524B3B
:103C90001B6C514A23F0805313647B689B69002B93
:103CA00000F092804C4B9B6803F00C03082B5CD017
:103CB0007B689B69022B41D1484B00221A60FCF7BC
:103CC0004DFC386108E0FCF749FC02463B69D31A19
:103CD000022B01D9032378E03F4B1B6803F00073EC
:103CE000002BF0D17B68DA697B681B6A1A437B681A
:103CF0005B6A9B011A437B689B6A5B08013B1B0460
:103D00001A437B68DB6A1B06334913434B60334B12
:103D100001221A60FCF722FC386108E0FCF71EFC67
:103D200002463B69D31A022B01D903234DE02A4BEB
:103D30001B6803F00073002BF0D045E0274B0022F6
:103D40001A60FCF70BFC386108E0FCF707FC024640
:103D50003B69D31A022B01D9032336E01E4B1B68A3
:103D600003F00073002BF0D12EE07B689B69012BE0
:103D700001D1012329E0184B9B68FB60FB6803F429
:103D800080027B68DB699A421CD1FB6803F03F022A
:103D90007B681B6A9A4215D1FA6847F6C0731340D4
:103DA0007A68526A93420DD1FB6803F440327B6813
:103DB0009B6A9A4206D1FB6803F070627B68DB6AFB
:103DC0009A4201D0012300E0002318461837BD466F
:103DD00080BD00BF007000400038024060004742D4
:103DE00080B584B000AF786039607B68002B01D16A
:103DF0000123CCE0684B1B6803F00F033A689A423A
:103E00000CD9654B3A68D2B21A70634B1B6803F049
:103E10000F033A689A4201D00123B8E07B681B681F
:103E200003F00203002B20D07B681B6803F004031F
:103E3000002B05D0594B9B68584A43F4E0539360DC
:103E40007B681B6803F00803002B05D0534B9B686D
:103E5000524A43F460439360504B9B6823F0F00256
:103E60007B689B684D4913438B607B681B6803F03C
:103E70000103002B44D07B685B68012B07D1474BC3
:103E80001B6803F40033002B19D101237FE07B680A
:103E90005B68022B03D07B685B68032B07D13F4B29
:103EA0001B6803F00073002B09D101236FE03B4B2B
:103EB0001B6803F00203002B01D1012367E0374B9D
:103EC0009B6823F003027B685B68344913438B6073
:103ED000FCF744FBF8600AE0FCF740FB0246FB6895
:103EE000D31A41F28832934201D903234FE02B4B7E
:103EF0009B6803F00C027B685B689B009A42EBD1E5
:103F0000254B1B6803F00F033A689A420CD2224BF0
:103F10003A68D2B21A70204B1B6803F00F033A685C
:103F20009A4201D0012332E07B681B6803F004034E
:103F3000002B08D0194B9B6823F4E0527B68DB68A8
:103F4000164913438B607B681B6803F00803002B42
:103F500009D0124B9B6823F460427B681B69DB002D
:103F60000E4913438B6000F021F801460B4B9B6810
:103F70001B0903F00F030A4AD35C21FA03F3094A31
:103F80001360094B1B68184608F04EFA00231846C8
:103F90001037BD4680BD00BF003C024000380240E3
:103FA000ECCE00083800002000000020F0B585B0FD
:103FB00000AF00237B600023FB6000233B600023F5
:103FC000BB60634B9B6803F00C03042B07D0082BEA
:103FD00008D0002B40F0B4805E4BBB60B3E05E4B7A
:103FE000BB60B0E05A4B5B6803F03F037B60584B0B
:103FF0005B6803F48003002B4AD0554B5B689B0938
:104000004FF0000440F2FF114FF0000203EA0105F7
:1040100004EA0206294632464FF000034FF000043E
:10402000540144EAD1644B0119462246491B62EB14
:1040300006024FF000034FF00004940144EA91643B
:104040008B015B1A64EB02044FF000014FF0000299
:10405000E20042EA5372D9000B4614465B1944EB66
:1040600006044FF000014FF00002620242EAD35210
:1040700059020B461446184621467B684FF000044F
:104080001A462346FCF7B4F803460C46FB6049E0A9
:104090002F4B5B689B094FF0000440F2FF114FF07B
:1040A000000203EA010504EA0206294632464FF0FF
:1040B00000034FF00004540144EAD1644B01194657
:1040C0002246491B62EB06024FF000034FF000044A
:1040D000940144EA91648B015B1A64EB02044FF093
:1040E00000014FF00002E20042EA5372D9000B4691
:1040F00014465B1944EB06044FF000014FF0000238
:10410000A20242EA935299020B46144618462146EF
:104110007B684FF000041A462346FCF769F8034613
:104120000C46FB600A4B5B681B0C03F00303013376
:104130005B003B60FA683B68B2FBF3F3BB6002E0F4
:10414000044BBB6000BFBB6818461437BD46F0BDCA
:10415000003802400024F40000127A0080B400AF5E
:10416000034B1B681846BD465DF8047B704700BFD3
:104170003800002080B500AFFFF7F0FF0146054B87
:104180009B689B0A03F00703034AD35C21FA03F3FD
:10419000184680BD00380240FCCE000880B500AF54
:1041A000FFF7DCFF0146054B9B685B0B03F0070341
:1041B000034AD35C21FA03F3184680BD003802405D
:1041C000FCCE000880B483B000AF786039607B68B3
:1041D0000F221A60124B9B6803F003027B685A603F
:1041E0000F4B9B6803F0F0027B689A600C4B9B6856
:1041F00003F4E0527B68DA60094B9B68DB0803F448
:10420000E0527B681A61074B1B6803F00F023B68A2
:104210001A6000BF0C37BD465DF8047B704700BFD5
:1042200000380240003C024080B586B000AF7860A4
:1042300000237B6100233B617B681B6803F0010363
:10424000002B0BD17B681B6803F00203002B05D108
:104250007B681B6803F04003002B75D0AD4B002238
:104260001A60FCF77BF9786108E0FCF777F9024601
:104270007B69D31A022B01D903238BE1A64B1B6860
:1042800003F00063002BF0D17B681B6803F001038F
:10429000002B09D07B685B689A017B689B681B07D1
:1042A0009D491343C1F884307B681B6803F0020307
:1042B000002B1FD0984BD3F884301B0F03F007035B
:1042C0003B617B685B689A017B68DB681B061A436D
:1042D0003B691B0790491343C1F884308E4BD3F8D8
:1042E0008C3023F01F027B68DB69013B8A49134352
:1042F000C1F88C307B681B6803F04003002B0DD0A5
:104300007B685B689A017B68DB681B061A437B68E5
:104310009B681B0780491343C1F884307D4B012201
:104320001A60FCF71BF9786108E0FCF717F9024600
:104330007B69D31A022B01D903232BE1764B1B682F
:1043400003F00063002BF0D07B681B6803F00403CC
:10435000002B05D17B681B6803F00803002B79D084
:104360006E4B00221A60FCF7F9F8786108E0FCF760
:10437000F5F802467B69D31A022B01D9032309E120
:10438000654B1B6803F00053B3F1005FEFD07B680F
:104390001B6803F00403002B20D05F4BD3F8883058
:1043A0001B0F03F007033B617B681B699A017B6865
:1043B0005B691B061A433B691B0757491343C1F846
:1043C0008830554BD3F88C3023F4F8527B681B6A45
:1043D000013B1B0250491343C1F88C307B681B68BA
:1043E00003F00803002B1ED04B4BD3F888301B0E74
:1043F00003F00F033B617B681B699A013B691B0655
:104400001A437B689B691B0743491343C1F88830F3
:10441000414BD3F88C3023F440327B685B6A3E49D1
:104420001343C1F88C303D4B01221A60FCF796F81B
:10443000786108E0FCF792F802467B69D31A022BF8
:1044400001D90323A6E0344B1B6803F00053B3F1FA
:10445000005FEFD17B681B6803F02003002B00F0A6
:104460008D800023FB602C4B1B6C2B4A43F0805348
:104470001364294B1B6C03F08053FB60FB68284BD3
:104480001B68274A43F480731360FCF767F8786170
:1044900008E0FCF763F802467B69D31A022B01D9C6
:1044A000032377E01E4B1B6803F48073002BF0D0CE
:1044B000194B1B6F03F440733B613B69002B39D0F0
:1044C0007B689B6A03F440733A699A4232D0124B7C
:1044D0001B6F23F440733B61124B01221A60114B96
:1044E00000221A600C4A3B6913670B4B1B6F03F0E9
:1044F0000103012B1ED1FCF731F8786114E0FCF7C1
:104500002DF802467B69D31A41F2883293420BD9C7
:1045100003233FE0680047420038024070004742F2
:1045200000700040400E47421C4B1B6F03F002031B
:10453000002BE4D07B689B6A03F44073B3F5407FA3
:104540000DD1164B9B6823F4F8127B689B6A23F00D
:10455000704323F44073114913438B6005E00F4B04
:104560009B680E4A23F4F81393600C4B1A6F7B6818
:104570009B6AC3F30B03094913430B677B681B68F2
:1045800003F01003002B04D07B6893F82C20044B1D
:104590001A60002318461837BD4680BD0038024017
:1045A000E011474280B582B000AF786039607B6827
:1045B000002B01D1012325E07B6893F82C30DBB27E
:1045C000002B06D17B68002283F82D20786807F045
:1045D00021FF7B68022283F82C207B681A687B68A5
:1045E00004331946104601F0C7F97B6818687B68E8
:1045F0005B681A46396801F032FA7B68012283F859
:104600002C20002318460837BD4680BD80B582B0F7
:1046100000AF78607B68002B01D1012356E07B68F6
:1046200000229A627B6893F85130DBB2002B06D1EE
:104630007B68002283F85020786807F0A7FD7B682C
:10464000022283F851207B681B681A687B681B680C
:1046500022F040021A607B685A687B689B681A43A4
:104660007B68DB681A437B681B691A437B685B695C
:104670001A437B689B6903F400731A437B68DB6908
:104680001A437B681B6A42EA03017B689A6A7B686B
:104690001B680A431A607B689B691B0C03F00401CA
:1046A0007B685A6A7B681B680A435A607B681B6890
:1046B000DA697B681B6822F40062DA617B68002299
:1046C0005A657B68012283F8512000231846083779
:1046D000BD4680BD80B582B000AF78607B68002B9E
:1046E00001D101231DE07B6893F83D30DBB2002B44
:1046F00006D17B68002283F83C20786807F08EFDA5
:104700007B68022283F83D207B681A687B6804334B
:104710001946104600F014FA7B68012283F83D2008
:10472000002318460837BD4680BD80B485B000AF71
:1047300078607B681B68DA687B681B6842F001025E
:10474000DA607B681B689B6803F00703FB60FB680B
:10475000062B07D07B681B681A687B681B6842F0D1
:1047600001021A60002318461437BD465DF8047B29
:10477000704780B582B000AF78607B681B681B69AA
:1047800003F00203022B22D17B681B68DB6803F075
:104790000203022B1BD17B681B686FF002021A61B7
:1047A0007B6801221A777B681B689B6903F003030F
:1047B000002B03D0786800F0A5F905E0786800F0D8
:1047C00097F9786800F0A8F97B6800221A777B686F
:1047D0001B681B6903F00403042B22D17B681B6850
:1047E000DB6803F00403042B1BD17B681B686FF0AC
:1047F00004021A617B6802221A777B681B689B6936
:1048000003F44073002B03D0786800F07BF905E0D7
:10481000786800F06DF9786800F07EF97B68002216
:104820001A777B681B681B6903F00803082B22D1E9
:104830007B681B68DB6803F00803082B1BD17B68CF
:104840001B686FF008021A617B6804221A777B6884
:104850001B68DB6903F00303002B03D0786800F0CA
:1048600051F905E0786800F043F9786800F054F9F0
:104870007B6800221A777B681B681B6903F01003B2
:10488000102B22D17B681B68DB6803F01003102B10
:104890001BD17B681B686FF010021A617B680822CD
:1048A0001A777B681B68DB6903F44073002B03D025
:1048B000786800F027F905E0786800F019F9786861
:1048C00000F02AF97B6800221A777B681B681B6955
:1048D00003F00103012B0ED17B681B68DB6803F03A
:1048E0000103012B07D17B681B686FF001021A617D
:1048F000786807F03BFA7B681B681B6903F080034C
:10490000802B0ED17B681B68DB6803F08003802B53
:1049100007D17B681B686FF080021A61786800F02D
:10492000CFFA7B681B681B6903F04003402B0ED154
:104930007B681B68DB6803F04003402B07D17B6872
:104940001B686FF040021A61786800F0EFF87B682E
:104950001B681B6903F02003202B0ED17B681B68AA
:10496000DB6803F02003202B07D17B681B686FF006
:1049700020021A61786800F099FA00BF0837BD4636
:1049800080BD80B584B000AF786039607B6893F8F3
:104990003C30012B01D10223A6E07B68012283F881
:1049A0003C207B68022283F83D207B681B689B6863
:1049B000FB60FB6823F07703FB60FB6823F47F4315
:1049C000FB607B681B68FA689A603B681B68402B39
:1049D00067D0402B0BD8102B73D0102B02D8002B94
:1049E0006FD078E0202B6CD0302B6AD073E0702B26
:1049F0000DD0702B04D8502B33D0602B41D06AE0FF
:104A0000B3F5805F66D0B3F5005F17D063E07B68D5
:104A100018683B6899683B685A683B68DB6800F037
:104A2000A9F97B681B689B68FB60FB6843F0770310
:104A3000FB607B681B68FA689A604CE07B681868CA
:104A40003B6899683B685A683B68DB6800F092F9FC
:104A50007B681B689A687B681B6842F480429A6096
:104A600039E07B6818683B6859683B68DB681A4620
:104A700000F006F97B681B685021184600F05FF9CA
:104A800029E07B6818683B6859683B68DB681A4610
:104A900000F025F97B681B686021184600F04FF98B
:104AA00019E07B6818683B6859683B68DB681A4600
:104AB00000F0E6F87B681B684021184600F03FF9DB
:104AC00009E07B681A683B681B681946104600F0CD
:104AD00036F900E000BF7B68012283F83D207B6847
:104AE000002283F83C20002318461037BD4680BDC5
:104AF00080B483B000AF786000BF0C37BD465DF86E
:104B0000047B704780B483B000AF786000BF0C377F
:104B1000BD465DF8047B704780B483B000AF786019
:104B200000BF0C37BD465DF8047B704780B483B08E
:104B300000AF786000BF0C37BD465DF8047B70475E
:104B400080B485B000AF786039607B681B68FB601B
:104B50007B68404A934213D07B68B3F1804F0FD0FB
:104B60007B683D4A93420BD07B683C4A934207D016
:104B70007B683B4A934203D07B683A4A934208D110
:104B8000FB6823F07003FB603B685B68FA681343C3
:104B9000FB607B682F4A93422BD07B68B3F1804F38
:104BA00027D07B682C4A934223D07B682B4A9342C0
:104BB0001FD07B682A4A93421BD07B68294A9342C4
:104BC00017D07B68284A934213D07B68274A9342C8
:104BD0000FD07B68264A93420BD07B68254A9342CC
:104BE00007D07B68244A934203D07B68234A9342D0
:104BF00008D1FB6823F44073FB603B68DB68FA680C
:104C00001343FB60FB6823F080023B685B6913433E
:104C1000FB607B68FA681A603B689A687B68DA62B6
:104C20003B681A687B689A627B680A4A934203D0A1
:104C30007B680C4A934203D13B681A697B681A630C
:104C40007B6801225A6100BF1437BD465DF8047BC2
:104C5000704700BF00000140000400400008004011
:104C6000000C0040000401400040014000440140AD
:104C70000048014000180040001C00400020004097
:104C800080B487B000AFF860B9607A60FB681B6AD7
:104C90007B61FB681B6A23F00102FB681A62FB68F8
:104CA0009B693B613B6923F0F0033B617B681B011F
:104CB0003A6913433B617B6923F00A037B617A699C
:104CC000BB6813437B61FB683A699A61FB687A6948
:104CD0001A6200BF1C37BD465DF8047B704780B484
:104CE00087B000AFF860B9607A60FB681B6A23F098
:104CF0001002FB681A62FB689B697B61FB681B6A98
:104D00003B617B6923F470437B617B681B037A6999
:104D100013437B613B6923F0A0033B61BB681B012C
:104D20003A6913433B61FB687A699A61FB683A69A7
:104D30001A6200BF1C37BD465DF8047B704780B423
:104D400085B000AF786039607B689B68FB60FB686A
:104D500023F07003FB603A68FB68134343F00703DA
:104D6000FB607B68FA689A6000BF1437BD465DF847
:104D7000047B704780B487B000AFF860B9607A6098
:104D80003B60FB689B687B617B6923F47F437B61AD
:104D90003B681A027B681A43BB6813437A69134362
:104DA0007B61FB687A699A6000BF1C37BD465DF87D
:104DB000047B704780B485B000AF786039607B6851
:104DC00093F83C30012B01D102235AE07B68012289
:104DD00083F83C207B68022283F83D207B681B68B7
:104DE0005B68FB607B681B689B68BB60FB6823F0AB
:104DF0007003FB603B681B68FA681343FB607B68C9
:104E00001B68FA685A607B681B68214A934222D06B
:104E10007B681B68B3F1804F1DD07B681B681D4AFF
:104E2000934218D07B681B681B4A934213D07B685F
:104E30001B681A4A93420ED07B681B68184A93423B
:104E400009D07B681B68174A934204D07B681B68B3
:104E5000154A93420CD1BB6823F08003BB603B68CA
:104E60005B68BA681343BB607B681B68BA689A606A
:104E70007B68012283F83D207B68002283F83C2078
:104E8000002318461437BD465DF8047B704700BF09
:104E9000000001400004004000080040000C0040F9
:104EA00000040140004001400018004080B483B07D
:104EB00000AF786000BF0C37BD465DF8047B7047DB
:104EC00080B483B000AF786000BF0C37BD465DF89A
:104ED000047B704780B582B000AF78607B68002BA0
:104EE00001D101233FE07B6893F83930DBB2002B1E
:104EF00006D17B68002283F83820786807F0B0F983
:104F00007B68242283F839207B681B68DA687B6819
:104F10001B6822F40052DA60786800F0B1F97B680F
:104F20001B681A697B681B6822F490421A617B68CF
:104F30001B685A697B681B6822F02A025A617B68E9
:104F40001B68DA687B681B6842F40052DA607B6891
:104F50000022DA637B68202283F839207B682022D4
:104F600083F83A20002318460837BD4680BD80B537
:104F700088B002AFF860B9603B601346FB80002345
:104F80007B61FB6893F83930DBB2202B40F08380E3
:104F9000BB68002B02D0FB88002B01D101237BE0F2
:104FA000FB6893F83830012B01D1022374E0FB68D1
:104FB000012283F83820FB680022DA63FB68212293
:104FC00083F83920FBF7CAFA7861FB68FA889A847B
:104FD000FB68FA88DA84FB68002283F8382042E014
:104FE000FB68DB8C9BB2013B9AB2FB68DA84FB68FE
:104FF0009B68B3F5805F22D13B6800937B690022F8
:105000008021F86800F0F2F80346002B01D003235A
:1050100042E0BB683B613B691B881A46FB681B6822
:10502000C2F308025A60FB681B69002B03D1BB68FE
:105030000233BB6017E0BB680133BB6013E03B6821
:1050400000937B6900228021F86800F0CFF80346C6
:10505000002B01D003231FE0BB685A1CBA601A78EA
:10506000FB681B685A60FB68DB8C9BB2002BB7D1D6
:105070003B6800937B6900224021F86800F0B6F895
:105080000346002B01D0032306E0FB68202283F8AF
:105090003920002300E0022318461837BD4680BDA2
:1050A00080B588B002AFF860B9603B601346FB8002
:1050B00000237B61FB6893F83A30DBB2202B40F091
:1050C0009080BB68002B02D0FB88002B01D101230C
:1050D00088E0FB6893F83830012B01D1022381E08E
:1050E000FB68012283F83820FB680022DA63FB6842
:1050F000222283F83A20FBF731FA7861FB68FA88BC
:105100009A85FB68FA88DA85FB68002283F83820E4
:105110005CE0FB68DB8D9BB2013B9AB2FB68DA85F1
:10512000FB689B68B3F5805F2BD13B6800937B697C
:1051300000222021F86800F059F80346002B01D026
:1051400003234FE0BB683B61FB681B69002B0CD15C
:10515000FB681B685B689BB2C3F308039AB23B69A8
:105160001A80BB680233BB6030E0FB681B685B6879
:105170009BB2DBB29AB23B691A80BB680133BB6059
:1051800024E03B6800937B6900222021F86800F04E
:105190002DF80346002B01D0032323E0FB681B6995
:1051A000002B08D1FB681B685968BB685A1CBA60A1
:1051B000CAB21A700AE0FB681B685B68DAB2BB68A7
:1051C000591CB96002F07F02D2B21A70FB68DB8D05
:1051D0009BB2002B9DD1FB68202283F83A2000234C
:1051E00000E0022318461837BD4680BD80B584B064
:1051F00000AFF860B9603B601346FB712CE0BB69FF
:10520000B3F1FF3F28D0BB69002B07D0FBF7A6F90D
:1052100002463B68D31ABA699A421DD2FB681B68E2
:10522000DA68FB681B6822F4D072DA60FB681B68DE
:105230005A69FB681B6822F001025A61FB68202250
:1052400083F83920FB68202283F83A20FB6800228B
:1052500083F8382003230FE0FB681B681A68BB68DB
:105260001340BA689A420CBF01230023DBB21A46EE
:10527000FB799A42C3D0002318461037BD4680BD43
:105280002DE9F04F85B000AF78607B681B681B6923
:1052900023F440517B68DA687B681B680A431A6113
:1052A0007B689A687B681B691A437B685B691A4351
:1052B0007B68DB691343FB607B681B68DB6823F456
:1052C000164323F00C037A681268F9680B43D36025
:1052D0007B681B685B6923F440717B689A697B6813
:1052E0001B680A435A617B68DB69B3F5004F40F0E5
:1052F0008B817B681B68C14A934205D07B681B6821
:10530000BF4A934240F0BD80FEF748FFB860BB68DB
:105310001D464FF00006A846B14618EB080349EBBE
:1053200009049846A14618EB050849EB06094FF019
:1053300000014FF000024FEAC90242EA58724FEAF8
:10534000C8018846914618EB050049EB06017B68C9
:105350005B681D464FF000066B1946EB06041A46C3
:105360002346FAF745FF03460C461A46A54BA3FB16
:1053700002235B094FEA0318BB681D464FF0000685
:10538000A946B24619EB09034AEB0A049946A2461C
:1053900019EB05094AEB060A4FF000014FF0000235
:1053A0004FEACA0242EA59724FEAC9018946924657
:1053B00019EB05004AEB06017B685B681D464FF060
:1053C00000066B1946EB06041A462346FAF710FF4F
:1053D00003460C461A468B4BA3FB02135B09642160
:1053E00001FB03F3D31ADB003233864AA2FB03230B
:1053F0005B095B0003F4F8739844BB681D464FF0EB
:105400000006A946B24619EB09034AEB0A0499467D
:10541000A24619EB05094AEB060A4FF000014FF0CE
:1054200000024FEACA0242EA59724FEAC9018946AC
:10543000924619EB05004AEB06017B685B681D4646
:105440004FF000066B1946EB06041A462346FAF79E
:10545000CFFE03460C461A466A4BA3FB02135B09B8
:10546000642101FB03F3D31ADB003233654AA2FB4C
:1054700003235B0903F007027B681B6842449A60C0
:105480006FE2FEF777FEB860BB681D464FF000067E
:10549000A846B14618EB080349EB09049846A14613
:1054A00018EB050849EB06094FF000014FF0000228
:1054B0004FEAC90242EA58724FEAC801884691464B
:1054C00018EB050049EB06017B685B681D464FF051
:1054D00000066B1946EB06041A462346FAF788FEC7
:1054E00003460C461A46474BA3FB02235B094FEACF
:1054F0000318BB681D464FF00006A946B24619EBDB
:1055000009034AEB0A049946A24619EB05094AEB3E
:10551000060A4FF000014FF000024FEACA0242EAC9
:1055200059724FEAC9018946924619EB05004AEBC8
:1055300006017B685B681D464FF000066B1946EB61
:1055400006041A462346FAF753FE03460C461A464B
:105550002C4BA3FB02135B09642101FB03F3D31A59
:10556000DB003233274AA2FB03235B095B0003F411
:10557000F8739844BB681D464FF00006A946B24632
:1055800019EB09034AEB0A049946A24619EB0509EF
:105590004AEB060A4FF000014FF000024FEACA0240
:1055A00042EA59724FEAC9018946924619EB050051
:1055B0004AEB06017B685B681D464FF000066B19DD
:1055C00046EB06041A462346FAF712FE03460C463B
:1055D0001A460C4BA3FB02135B09642101FB03F386
:1055E000D31ADB003233074AA2FB03235B0903F023
:1055F00007027B681B6842449A60B2E100100140D8
:10560000001401401F85EB517B681B68D74A934209
:1056100005D07B681B68D64A934240F0D180FEF7E4
:10562000BDFDB860BB689A464FF0000BD046D94626
:1056300018EB080349EB09049846A14618EB0A0841
:1056400049EB0B094FF000014FF000024FEAC9028D
:1056500042EA58724FEAC801884691461AEB08059B
:105660004BEB09067B685B6819464FF000024FF070
:1056700000034FF00004940044EA91748B001A4632
:10568000234628463146FAF7B3FD03460C461A4630
:10569000B84BA3FB02235B094FEA0318BB689B4688
:1056A0004FF0000CD946E24619EB09034AEB0A0415
:1056B0009946A24619EB0B094AEB0C0A4FF0000180
:1056C0004FF000024FEACA0242EA59724FEAC9019A
:1056D000894692461BEB09054CEB0A067B685B6822
:1056E00019464FF000024FF000034FF00004940001
:1056F00044EA91748B001A46234628463146FAF74D
:1057000077FD03460C461A469A4BA3FB02135B092E
:10571000642101FB03F3D31A1B013233954AA2FB28
:1057200003235B0903F0F0039844BB689B464FF0EA
:10573000000CD946E24619EB09034AEB0A049946E4
:10574000A24619EB0B094AEB0C0A4FF000014FF08F
:1057500000024FEACA0242EA59724FEAC901894679
:1057600092461BEB09054CEB0A067B685B68194601
:105770004FF000024FF000034FF00004940044EAA1
:1057800091748B001A46234628463146FAF730FDBD
:1057900003460C461A46774BA3FB02135B096421B0
:1057A00001FB03F3D31A1B013233724AA2FB03231A
:1057B0005B0903F00F027B681B6842449A60D0E0EB
:1057C000FEF7D8FCB860BB689A464FF0000BD04695
:1057D000D94618EB080349EB09049846A14618EB93
:1057E0000A0849EB0B094FF000014FF000024FEAA5
:1057F000C90242EA58724FEAC801884691461AEB3C
:1058000008054BEB09067B685B6819464FF0000200
:105810004FF000034FF00004940044EA91748B00B1
:105820001A46234628463146FAF7E2FC03460C4660
:105830001A46504BA3FB02235B094FEA0318BB68CF
:105840009B464FF0000CD946E24619EB09034AEBA0
:105850000A049946A24619EB0B094AEB0C0A4FF0D1
:1058600000014FF000024FEACA0242EA59724FEAC1
:10587000C901894692461BEB09054CEB0A067B6879
:105880005B6819464FF000024FF000034FF0000430
:10589000940044EA91748B001A4623462846314608
:1058A000FAF7A6FC03460C461A46324BA3FB02133A
:1058B0005B09642101FB03F3D31A1B0132332D4A28
:1058C000A2FB03235B0903F0F0039844BB689B46EB
:1058D0004FF0000CD946E24619EB09034AEB0A04E3
:1058E0009946A24619EB0B094AEB0C0A4FF000014E
:1058F0004FF000024FEACA0242EA59724FEAC90168
:10590000894692461BEB09054CEB0A067B685B68EF
:1059100019464FF000024FF000034FF000049400CE
:1059200044EA91748B001A46234628463146FAF71A
:105930005FFC03460C461A460E4BA3FB02135B09A1
:10594000642101FB03F3D31A1B013233094AA2FB82
:1059500003235B0903F00F027B681B6842449A60D3
:10596000FFE700BF1437BD46BDE8F08F00100140CF
:10597000001401401F85EB5180B485B000AF786002
:1059800039600023FB600023BB603B681B68012B70
:1059900029D07B681B68FB60FB6823F4FF4323F07E
:1059A0007F03FB603B685A683B689B681A433B680F
:1059B000DB681A433B681B691A433B685B691A43FF
:1059C0003B689B691A433B68DB691A433B681B6A67
:1059D0001A433B685B6A1343FA681343FB607B68B6
:1059E000FA681A6034E07B681B68FB60FB6823F48C
:1059F000F843FB603B68DA693B681B6A1A433B6803
:105A00005B6A1343FA681343FB607B685B68BB60A7
:105A1000BB6823F4FF4323F07F03BB603B685A68F5
:105A20003B689B681A433B68DB681A433B681B6909
:105A30001A433B685B691A433B689B691343BA6826
:105A40001343BB607B68FA681A607B68BA685A6067
:105A5000002318461437BD465DF8047B704780B4B8
:105A600087B000AFF860B9607A6000237B610023E3
:105A70003B617B68012B2ED0FB689B687B617B6957
:105A800003F070437B61BB681B685A1EBB685B6890
:105A9000013B1B011A43BB689B68013B1B021A4375
:105AA000BB68DB68013B1B031A43BB681B69013BF6
:105AB0001B041A43BB685B69013B1B051A43BB68A7
:105AC0009B69013B1B0613437A6913437B61FB68A7
:105AD0007A699A603BE0FB689B687B617B6923F491
